:020000040000fa
:080000000002040000000000f2
:020000040000fa
:04000800d60400001a
:020000040000fa
:04000c00820400006a
:020000040000fa
:04001000a004000048
:020000040000fa
:04001400a60400003e
:020000040000fa
:04001800ac04000034
:020000040000fa
:04001c00b20400002a
:020000040000fa
:04002000d604000002
:020000040000fa
:04002400d6040000fe
:020000040000fa
:04002800d6040000fa
:020000040000fa
:04002c00d6040000f6
:020000040000fa
:04003000d6040000f2
:020000040000fa
:04003400fc020000ca
:020000040000fa
:040038001e030000a3
:020000040000fa
:04003c00d6040000e6
:020000040000fa
:04004000d6040000e2
:020000040000fa
:04004400d6040000de
:020000040000fa
:04004800d6040000da
:020000040000fa
:04004c00d6040000d6
:020000040000fa
:04005000d6040000d2
:020000040000fa
:04005400d6040000ce
:020000040000fa
:04005800d6040000ca
:020000040000fa
:04005c00d6040000c6
:020000040000fa
:040060007a0400001e
:020000040000fa
:04006400d6040000be
:020000040000fa
:04006800d6040000ba
:020000040000fa
:04006c00d6040000b6
:020000040000fa
:04007000d6040000b2
:020000040000fa
:04007400d6040000ae
:020000040000fa
:04007800d6040000aa
:020000040000fa
:04007c00d6040000a6
:020000040000fa
:04008000d6040000a2
:020000040000fa
:04008400d60400009e
:020000040000fa
:040088004c04000024
:020000040000fa
:04008c00d604000096
:020000040000fa
:04009000d604000092
:020000040000fa
:04009400d60400008e
:020000040000fa
:04009800d60400008a
:020000040000fa
:04009c00d604000086
:020000040000fa
:0400a000d604000082
:020000040000fa
:0400a400d60400007e
:020000040000fa
:0400a800d60400007a
:020000040000fa
:0400ac00d604000076
:020000040000fa
:0400b000d604000072
:020000040000fa
:0400b400d60400006e
:020000040000fa
:0400b800d60400006a
:020000040000fa
:0400bc00d604000066
:020000040000fa
:0400c000d604000062
:020000040000fa
:0400c400d60400005e
:020000040000fa
:0400c800d60400005a
:020000040000fa
:0400cc00d604000056
:020000040000fa
:0400d000d604000052
:020000040000fa
:0400d400d60400004e
:020000040000fa
:0400d800d60400004a
:020000040000fa
:0400dc00d604000046
:020000040000fa
:0400e000d604000042
:020000040000fa
:0400e400d60400003e
:020000040000fa
:0400e800d60400003a
:020000040000fa
:0400ec00d604000036
:020000040000fa
:0400f000d604000032
:020000040000fa
:0400f400d60400002e
:020000040000fa
:0400f800d60400002a
:020000040000fa
:0400fc00d604000026
:020000040000fa
:04010000d604000021
:020000040000fa
:04010400d60400001d
:020000040000fa
:04010800d604000019
:020000040000fa
:04010c00d604000015
:020000040000fa
:04011000d604000011
:020000040000fa
:04011400d60400000d
:020000040000fa
:04011800d604000009
:020000040000fa
:04011c00d604000005
:020000040000fa
:04012000d604000001
:020000040000fa
:04012400d6040000fd
:020000040000fa
:04012800d6040000f9
:020000040000fa
:04012c00d6040000f5
:020000040000fa
:04013000d6040000f1
:020000040000fa
:04013400d6040000ed
:020000040000fa
:04013800d6040000e9
:020000040000fa
:04013c00d6040000e5
:020000040000fa
:04014000d6040000e1
:020000040000fa
:04014400d6040000dd
:020000040000fa
:04014800d6040000d9
:020000040000fa
:04014c00d6040000d5
:020000040000fa
:04015000d6040000d1
:020000040000fa
:04015400d6040000cd
:020000040000fa
:04015800d6040000c9
:020000040000fa
:04015c00d6040000c5
:020000040000fa
:04016000d6040000c1
:020000040000fa
:04016400d6040000bd
:020000040000fa
:04020800d604000018
:020000040000fa
:04020c00b804000032
:020000040000fa
:04021000be04000028
:020000040000fa
:04021400c40400001e
:020000040000fa
:04021800ca04000014
:020000040000fa
:04021c00d00400000a
:020000040000fa
:04022000d604000000
:020000040000fa
:04022400d6040000fc
:020000040000fa
:04022800d6040000f8
:020000040000fa
:04022c00d6040000f4
:020000040000fa
:04023000d6040000f0
:020000040000fa
:04023400fc020000c8
:020000040000fa
:040238001e030000a1
:020000040000fa
:04023c00d6040000e4
:020000040000fa
:04024000d6040000e0
:020000040000fa
:04024400d6040000dc
:020000040000fa
:04024800d6040000d8
:020000040000fa
:04024c00d6040000d4
:020000040000fa
:04025000d6040000d0
:020000040000fa
:04025400d6040000cc
:020000040000fa
:04025800d6040000c8
:020000040000fa
:04025c00d6040000c4
:020000040000fa
:040260007a0400001c
:020000040000fa
:04026400d6040000bc
:020000040000fa
:04026800d6040000b8
:020000040000fa
:04026c00d6040000b4
:020000040000fa
:04027000d6040000b0
:020000040000fa
:04027400d6040000ac
:020000040000fa
:04027800d6040000a8
:020000040000fa
:04027c00d6040000a4
:020000040000fa
:04028000d6040000a0
:020000040000fa
:04028400d60400009c
:020000040000fa
:040288004c04000022
:020000040000fa
:04028c00d604000094
:020000040000fa
:04029000d604000090
:020000040000fa
:04029400d60400008c
:020000040000fa
:04029800d604000088
:020000040000fa
:04029c00d604000084
:020000040000fa
:0402a000d604000080
:020000040000fa
:0402a400d60400007c
:020000040000fa
:0402a800d604000078
:020000040000fa
:0402ac00d604000074
:020000040000fa
:0402b000d604000070
:020000040000fa
:0402b400d60400006c
:020000040000fa
:0402b800d604000068
:020000040000fa
:0402bc00d604000064
:020000040000fa
:0402c000d604000060
:020000040000fa
:0402c400d60400005c
:020000040000fa
:0402c800d604000058
:020000040000fa
:0402cc00d604000054
:020000040000fa
:0402d000d604000050
:020000040000fa
:0402d400d60400004c
:020000040000fa
:0402d800d604000048
:020000040000fa
:0402dc00d604000044
:020000040000fa
:0402e000d604000040
:020000040000fa
:0402e400d60400003c
:020000040000fa
:0402e800d604000038
:020000040000fa
:0402ec00d604000034
:020000040000fa
:0402f000d604000030
:020000040000fa
:0402f400d60400002c
:020000040000fa
:0402f800d604000028
:020000040000fa
:0402fc00d604000024
:020000040000fa
:04030000d60400001f
:020000040000fa
:04030400d60400001b
:020000040000fa
:04030800d604000017
:020000040000fa
:04030c00d604000013
:020000040000fa
:04031000d60400000f
:020000040000fa
:04031400d60400000b
:020000040000fa
:04031800d604000007
:020000040000fa
:04031c00d604000003
:020000040000fa
:04032000d6040000ff
:020000040000fa
:04032400d6040000fb
:020000040000fa
:04032800d6040000f7
:020000040000fa
:04032c00d6040000f3
:020000040000fa
:04033000d6040000ef
:020000040000fa
:04033400d6040000eb
:020000040000fa
:04033800d6040000e7
:020000040000fa
:04033c00d6040000e3
:020000040000fa
:04034000d6040000df
:020000040000fa
:04034400d6040000db
:020000040000fa
:04034800d6040000d7
:020000040000fa
:04034c00d6040000d3
:020000040000fa
:04035000d6040000cf
:020000040000fa
:04035400d6040000cb
:020000040000fa
:04035800d6040000c7
:020000040000fa
:04035c00d6040000c3
:020000040000fa
:04036000d6040000bf
:020000040000fa
:04036400d6040000bb
:020000040000fa
:100400006fab21000e9f23000e018800000000004a
:10041000000020000000e000020032000001200087
:10042000200288000e000700c06c27000100200099
:10043000810f700001003200220007000000200040
:100440000000e00002003200000002000000000096
:100450003a7c0200000000000040da000000fe00cc
:100460004440a900407120000000e0000300320079
:1004700000002000a00188004440a8000000060001
:10048000f03fb1000180b10006003500ee03090025
:1004900000000000403fb1000180b100fbff3d00c3
:1004a0001000b000203fb0000200350000800900bd
:1004b00000000000000006008a1f78008b1f7800f3
:1004c0000000060091018800800478000000eb0025
:1004d0001a003700e284440032a0b4009905ba0043
:1004e000e284440032a0b4009906ba00e2844400d9
:1004f00032a0b4000006eb00476fde00fd07b2003b
:10050000636ce10003003a00ebff07000000eb0022
:100510000a003700606ce10004003a00005deb0067
:100520008b05e900fdff3e00040037006168e10033
:10053000010032000086eb000b00070019c7ba006b
:100540001905ba000e04e00003003a000a00e000ba
:10055000e0ff3a0000000600fe07b2009e0188009e
:100560008a047800f5ff3700395dba008b05e90091
:100570000c003200295dba008b05e900080032004a
:100580000c00e00003003a00e284440032a0b40012
:10059000f5ff370019ddba008b05e900faff3a00d4
:1005a0008904e800e184440032a0b40000000600a1
:1005b000867a040000000000ae7a0400000000000b
:1005c000b47a040000000000de7a0400000000009d
:1005d000da04040000000000f4040400000000003d
:1005e000300504000000000050100400000000006e
:1005f0000000040000000000801f78000000fa00e6
:100600008460a90005e1a900e04180000000e0004d
:1006100003003200e04180000000e900e041880072
:100620000021ef00000920001008880005e1a80063
:100630000080fa004f007800004006003600f80005
:10064000809fbe00829fbe00849fbe00869fbe002a
:100650000000fa002041800080004000e0fa200005
:100660000080400010007800e281200080007800c7
:1006700000052000a2090700204180008000400002
:10068000e0fa200000804000100078000282200084
:100690008000780000052000a609070020418000a6
:1006a00080004000e0fa20000080400090007800c8
:1006b000f040800000004000008040009000780082
:1006c00000e82300808f50000c003c002041800097
:1006d00080004000e0fa2000008040009000780098
:1006e0000041800000004000008040009000780041
:1006f00000182c00808f500003003d0010002000e7
:10070000d0408800010037001a28ef002041800007
:1007100080004000e0fa20000080400010007800d7
:100720000305200002f0200080007800a06b21006b
:10073000b3420700f04180008002780004002100ed
:10074000c36a210002f02000816c21000005200016
:10075000b93f070002f02000010021000005200041
:10076000810907002ac8bf000080fb000001780053
:10077000816c210080842000be0b0700826c210068
:10078000c160210000052000770907001200200049
:10079000c160210080b42000b60b07002ec8bf0046
:1007a0000004e0001300320080b42000020c0700b7
:1007b0000000e0000f003a002228ef000900370097
:1007c0001041800080004000806c210000804000cb
:1007d0008000eb0001087800104180000000e80074
:1007e0001041880011418000f0042000808f5000eb
:1007f000f3ff3400e2812000816c2100000520001d
:100800003f09070002822000816c210000052000c2
:1008100048090700f040800080004000806c210003
:10082000008040009000780000e82300808f500096
:1008300008003c000041800080004000806c2100e6
:10084000008040009000780000182c00808f50003d
:1008500003003d0010002000e04088000100370048
:100860001c28ef00204180000000a20020418800e9
:1008700010002000304188008480a9000080fa0028
:100880004f03be004f02be004f01be004f00be002e
:100890003600f900004006003600f800809fbe00d8
:1008a000829fbe00849fbe00869fbe000000fa00ab
:1008b0008700a900204180008000400020fb20002c
:1008c0000080400010007800826c210080007800d9
:1008d00000052000240907000080fa004f03be0035
:1008e0004f02be004f01be004f00be003600f900af
:1008f000004006000000fa0085c0a9000080fa0050
:10090000004006003600f800809fbe00829fbe00b7
:10091000849fbe00869fbe000000fa00ae3f070025
:100920008020a9000080fa004f03be004f02be00e5
:100930004f01be004f00be003600f9000040060027
:100940000000fa008060a900ffff37000000fa00f5
:100950008040a900ffff37000000fa008080a90056
:10096000ffff37000000fa0080a0a900ffff37005a
:100970000000fa008020a900ffff37000000fa0005
:100980008060a900ffff37000000fa008040a90046
:10099000ffff37000000fa008080a900ffff37004a
:1009a0000000fa0080a0a900ffff37000040da0035
:1009b0000000fe00889fbe00800478000203be0095
:1009c000010478006149b800898fd2008381d20088
:1009d000080278000600be000406070008804400f4
:1009e0004f04be0000000600881f78000204780053
:1009f0000801780013000700080040004f04780049
:100a0000000006000000fa00881f7800000478004b
:100a10006a825700bfb9970008017800a14d2000f5
:100a2000404f20001d0007000000e00002003500dc
:100a30008040eb00017478004f0478000080fa00d9
:100a4000000006008001780002003700b1597800ec
:100a50000201e9000200e000fcff3a00000006008d
:100a6000889fbe00000478000203be008104780065
:100a70000802780089017800120020000600be00fc
:100a8000c6000700890f5000010032000004eb008f
:100a9000080078004f04be00000006006800fa005d
:100aa000889fbe008a9fbe00800478000104780001
:100ab00082057800030578008400780000f92f0093
:100ac0000f00400021010700d98f9f00fb8f9f007e
:100ad0000000eb00a09f9f00e88f9f009a84fb001e
:100ae0000904fb008904ea00cf4cde00500220001c
:100af000800f54000d003200e18f54000b003a00cb
:100b0000090178008a0078007f889700df899700c4
:100b100003000100f08f9f000000e000950032000c
:100b20002f9897000000e800a09f9f00090545004e
:100b300050022000800f5400040032000800e00042
:100b4000e6ff3a002f9897008b0037000000eb007b
:100b5000809f9f00f0979f00e0979f00d0979f0095
:100b6000c0979f00b0979f000700370001ec20005e
:100b7000010050000000400041eb200061007800bf
:100b8000cf98970001007000c09f9f000a04780072
:100b900008057800ba4478008900fb0000ec2000ca
:100ba000ec0007000000e000f0ff3a00a1c2b30033
:100bb00081cf54000e003a008f8897000180e90031
:100bc000808f9f0010007800b09f9f000000e00021
:100bd00005003d000000ea00b09f9f004f9897007d
:100be0000020a000c09f9f000804e800100037000c
:100bf000b09f9f00880078000000eb0005003700e0
:100c0000f3ff2700830f5000020032006a02b90090
:100c10000400410001047800880078003101fb00e5
:100c20000203b100e90f5100f5ff3600b09f9f00ad
:100c3000e0c2b300984f1000020032000080eb00c9
:100c400019003700a0c2b300d84f100007003a00c7
:100c50008f8897000180e900808f9f001000780046
:100c6000909f9f000804e800100037000000eb0090
:100c7000909f9f008800780005003700f3ff270051
:100c8000830f5000020032006a02b90004004100e4
:100c900001047800880078003101fb000203b100f4
:100ca000e90f5100f5ff3600909f9f0098447800af
:100cb0008900fb00c0ea2000a60007000000e00059
:100cc000020032000804e800010037008044eb0015
:100cd000a97f9f0080c6b30080cf540006003a0071
:100ce00098cf140010003a0066405000a07f9f008b
:100cf0000804e8000c003700c0c6b30080cf5400e1
:100d000009003a0098cf140007003a0067404000fd
:100d1000d84f100002003a006e405000010037002a
:100d200010c7b300a07f9f001801fb00c3fb2f007a
:100d30008f81410001f92f008f80400020f92f00a2
:100d40000f0040008f0007000000e00009003a009b
:100d5000c1fb2f008f80400020f92f000f004000c2
:100d60009a0107000000e000020035000805e800d5
:100d70005aff37000080eb004f05be004f04be0055
:100d80000080fa000000060003027800820178006b
:100d9000010178000153200040ff3700e68747003b
:100da000889fbe008a9fbe008c9fbe008e1f780069
:100db00082bf9f0004047800029ab900f4b79f0034
:100dc0000400e000590032000fb997000200e00073
:100dd000570032000006be0004077800c8009000eb
:100de00068009000808f50000400390008007800ef
:100df000500207000000e0003b00350000402000ea
:100e0000180060000a0032008e017800a200200065
:100e10000c00be00120507000005be000080750032
:100e2000070032008c0455008904e80005003700f3
:100e30008e0478000a0020000b002000010037001b
:100e40008e04780048019000680090000200500075
:100e5000890f500003003100800478000a00200050
:100e60000b0020006111b800828fd2008381d20074
:100e7000090278000c00be00dc04070009075700d7
:100e80004800900009004000400498000a85750061
:100e900004003200080078006d0207000000e00046
:100ea00011003a000e00e0000f0032006148b80067
:100eb000808fd2008180d2000000780000f0a10075
:100ec0008c01d0000001d000028641004220a80021
:100ed00081864e004200a9004220ae004200a800d8
:100ee0000c86d300bdff3700008020001800600092
:100ef00002003200080078005502070000c0200000
:100f00001800600002003200c801900063049800dd
:100f10007fb097000e0750000fb99700110009002d
:100f20000287d80080017800010037008001eb00c3
:100f3000030078004f0778004f06be004f05be0043
:100f40004f04be006f00b1000000060001087800e9
:100f500000000600020037000304e0000600320033
:100f60000001780002007800b041780081cf510084
:100f7000f9ff3a00010037000001eb0002007800a1
:100f800000000600889fbe008a9fbe00e4c6b30032
:100f9000844f5100be00320010003c006b425200f2
:100fa000844f51001800320005003c0054c2b300c9
:100fb000844f5100f600320084c5b3000f003700a3
:100fc00044c6b300844f5100140032006542420011
:100fd000844f5100f1003a001000370004c7b300fd
:100fe000844f5100dd00320056003500654242005a
:100ff000844f51005300320063424200844f51003d
:10100000e6003a004f0037001181e90082087800bd
:10101000a008900012417800de003700006a9000be
:10102000c5c6b300854f520007003a009102780010
:1010300064825200840878001402be004fabde00c8
:10104000860378001400370015c7b300854f52009f
:1010500003003a00110478006802540005003700cc
:10106000a5c6b300854f520006003a0091047800ef
:1010700068825400840878005403be004402be0015
:10108000050037001182e900840878001402780016
:10109000cfa2de00612bb9000498be000690be000e
:1010a0008068900088c6b30088cf50000d003200e1
:1010b00028c6b30088cf500004003a000402fb00a9
:1010c000cfa2de00612bb9000800370048c7b3008b
:1010d00088cf5000030032006644440088cf50009f
:1010e00004003a00cfa2de00612bb9000498be00d4
:1010f0000690be003002be002003be00a008900093
:10110000e00f5200e08f5a00e00f5b00e08f5b00c1
:1011100002003d00d4c2b300080037003012900036
:101120000418a30002003200b4c2b3000300370069
:101130000408a3005100320004c2b30084f1780017
:101140004c003700006a9000c5c6b300854f5200be
:1011500008003a0011057800640255008408780000
:101160001404be006055b8000802be000a03be00a9
:101170001400370015c7b300854f520003003a0032
:10118000910478006882540005003700a5c6b300ba
:10119000854f520006003a0011057800680255009c
:1011a000840878005403be004402be0005003700e6
:1011b0001182e90084087800140278008002eb00b4
:1011c0006033b8000498be000690be0080689000ae
:1011d00088c6b30088cf50000d00320028c6b30087
:1011e00088cf500004003a000482fb008002eb002c
:1011f0006033b8000800370048c7b30088cf5000fc
:10120000030032006644440088cf500004003a00d6
:101210008002eb006033b8000498be000690be0068
:10122000b01090000138a300140032003002be005c
:101230002003be00e00f5200e08f5a00e00f5b0079
:10124000e08f5b000d00320081c7b300814f510079
:101250000300320081c5b300814f510007003a00fe
:10126000a008900004c3b30084f178008100e80076
:1012700082f178008100e80021089800a008900021
:101280008181410073009800824078003e00370061
:1012900080699000c4c6b3001181e90084cf510079
:1012a000220032000a003c006442520084cf510008
:1012b0002500320004c2e80084cf51001300320040
:1012c0006842520084cf51001e003a000a003700e5
:1012d00044c7b30084cf51001b0032006642420075
:1012e00084cf5100180032006942520084cf51006f
:1012f00014003a0005003700820878009200780058
:1013000020609000804878002c0037008208780028
:101310009200780010129000cfa2de00612bb9007d
:101320008498be008690be002400370082087800b2
:101330009200780010119000cf91de008288be00ec
:101340001e0037001181e9008208780092007800c1
:101350001010900080087800180037001181e90013
:101360008208780012027800cfa2de00612bb9005b
:101370000498be000690be00a00890008181410044
:101380007300980081c7b3006c0107000b003700a1
:10139000a008900082f1780006003700a0089000b5
:1013a000818141000204e00001003a0052c2b30012
:1013b000824978008100e800210898000000eb00d5
:1013c0004f05be004f04be00000006000400fa00f6
:1013d000889fbe008a9fbe008c1f780000047800a2
:1013e00001067800a814900028089000808454001a
:1013f000380890008084540048089000808454008d
:10140000580890008084540068089000808454003c
:1014100078089000808454000002220090bf9f0052
:1014200000032300a0bf9f00381090000028a300f5
:1014300015003a000900e0001300340009057800a7
:101440008a057800e20f5500010036002b002000cd
:10145000c80190000b017800ee80570068009000f2
:1014600003000100600498000000e000aa003200c0
:10147000181090000b004000101498000b05550048
:101480004240a900eeff3c00280990000200e00065
:101490000c003400c80190008c00780068009000b7
:1014a00003000100600498008080eb000000e00071
:1014b0009a003200981090002808900000804000a8
:1014c00010149800380d90000a00e000110034005c
:1014d0008a057800e20f5500010036002b0020003d
:1014e000c80190000b017800ec8057006800900064
:1014f00003000100600498000000e0008600320054
:10150000181090000b004000101498000b055500b7
:10151000edff370008699000c808900050c6b3007e
:10152000804f510008003a000100e000150034002f
:1015300058029000080990009809900068009000f7
:1015400004000100070037000100e0000d00340036
:10155000c801900001017800f80090006800900038
:1015600003000100600498008080eb000000e000b0
:101570006a003200981090004808900000804000f7
:1015800010149800580d90000a00e000110034007b
:101590008a057800e20f5500010036002b0020007c
:1015a000c80190000b017800ec80570068009000a3
:1015b00003000100600498000000e00056003200c3
:1015c000181090000b004000101498000b055500f7
:1015d000edff3700086990006808900051c6b3001d
:1015e000814f51000d003a000000e0001c00340063
:1015f00078019000c8089000010141006111b80015
:10160000828fd2008381d20058029000800078003f
:101610006800900004000100090037000000e000ad
:101620000f00340078019000c8089000810041004c
:10163000c8019000000178006800900003000100dc
:10164000600498008080eb000000e000330032006e
:1016500098109000680890000080400010149800d6
:10166000780d90000a00e000110034008a0578002f
:10167000e20f5500010036002b002000c801900049
:101680000b017800ec805700680090000300010017
:10169000600498000000e0001f0032001810900065
:1016a0000b004000101498000b055500edff3700ab
:1016b000381090008000eb000028a30017003200d3
:1016c0000900e0001500340009057800e28f54009d
:1016d000010036002a002000c80190000a017800ad
:1016e000ee8057006800900003000100600498003d
:1016f0000000e00008003200181090000a004000ce
:10170000101498008a8454004240a900eeff3c0067
:101710008000eb00010037008080eb0001007800c2
:101720004f0678004f05be004f04be000080fa004f
:1017300000000600889fbe008a1f78000004780021
:10174000c8009000680190000000eb00828f5000fc
:101750003c003900180078002200290002016000d6
:10176000e20f510007003200012020000000e000dd
:101770000100350001202400008c70000080eb0087
:10178000300037000200260002006000820f500087
:1017900009003a0038009000808f500006003900a0
:1017a000080078002a000700800078000080eb0025
:1017b0000100e00023003a001805780000c0200076
:1017c0000000650018003a00a804900060022000a4
:1017d00008004000808f540013003a0000202000d1
:1017e000b8010700200498000000e00005003a005e
:1017f00029049800490498008904e80039049800f5
:10180000080037000a60a0000a0c78004004980025
:10181000012020008080400031049800400c980096
:10182000500c9800d3010700280090005004980045
:10183000380090006004980000002600180c70002a
:101840000000eb004f0578004f04be0000000600ca
:10185000889fbe008a1f7800000478000800e0001e
:101860000d003a0068b72300700544008004eb00c7
:10187000580078000000e00004003200f4ff070088
:101880000000e00001003d008084eb008a0f54005e
:10189000f7ff3a0025003700000022001800600022
:1018a0008004eb0021003200a80490000f003700f4
:1018b00009015100384090000000fb0089007800c9
:1018c000840207000000e00007003c0028009000b0
:1018d0004004980060049800500c98001890a000f4
:1018e0008084eb00110037008084440048019000a0
:1018f000828f5400eeff39002800900040049800c9
:101900009800780002c020000281600001003a00c7
:101910003800900001e8a300020032006004980043
:1019200001003700500c98008004eb00090078009b
:101930004f0578004f04be0000000600fc874700fa
:10194000889fbe008a9fbe008c9fbe008e1f7800bd
:101950000006780080c5b30080cf50000a00320036
:101960007740400080cf50000a00320069404000bc
:1019700080cf50000b003200d041240080bf9f0078
:10198000ae0020000a003700c240240082bf9f0042
:1019900006003700d341240083bf9f008e00200043
:1019a00003003700d441240084bf9f000e012000b3
:1019b0003c02be002c03be000605be000404be00af
:1019c00040c6b30080cf50000300320065404000a5
:1019d00080cf50000b003a00e00f5200e08f5a0019
:1019e000e00f5b00e08f5b0006003d006000b80088
:1019f0006011b800040450008584580006055900a1
:101a000087855900e80f570004003200400020008d
:101a1000f00f570038003a00010037003000200076
:101a2000e00f5400e08f5c00e00f5d00e08f5d0090
:101a300004003a008c1090008d0120000100e000ad
:101a4000060032008e00e900888060008fba97009f
:101a5000e5c07800f1ef9f007d0120008000780054
:101a60008100e900050033008b05d1000a85d30011
:101a70008984d3000884d300f9ff3700089ebe0094
:101a80000a96be00120037008d06e9008e00e900bc
:101a9000848060000fb99700e2c1780082fd2f00ba
:101aa0000f01410003f17e00800078008100e90011
:101ab000050033008783d1000683d3008582d300dd
:101ac0000482d300f9ff3700049ebe000696be00d4
:101ad0003c02be002c03be00e00f5200e08f5a0013
:101ae000e00f5b00e08f5b008b0034000d00e00036
:101af000e5ff3c00880037000c68900081c6b30009
:101b0000814f50000b00320006003c000004e00052
:101b100008003200e6c05000814f50004e003a00ed
:101b200004003700c1c6b300814f50004a003a009c
:101b3000210037000800e00004003a000c1090007b
:101b40008d0120000000e0000600320011000900b5
:101b50000e84d8000fb99700e2c07800f1ef9f0023
:101b60007d012000110009000e84d8000a00370012
:101b7000110009000e04d8008d06e9000e81b9009d
:101b8000020454008fb8970061417c0081fd2f0052
:101b90008f80400082f07e00000478000800e000a2
:101ba000020032000d00e000f1ff3c00cfc4de0077
:101bb000614db90025003700e00f5400e08f5c0054
:101bc00004003a000c1090008d0120000000e0009d
:101bd000070032006171b9000800be00421607001c
:101be0008fb99700e3417800f3ef9f007d0120005b
:101bf0006171b9000800be00db0e07000b00370062
:101c00006171b9000800be002b0207008d06e900d3
:101c100000f1b900020454000fba9700e4427c00be
:101c200084fd2f000f02420005f27e000004be007a
:101c3000e00f5000e08f5800020032000d00e0007d
:101c4000efff3c004fcdde008a057800089ebe0005
:101c50000a96be0030003700e00f5400e08f5c00b1
:101c6000e00f5d00e08f5d0004003a000c10900072
:101c70008d0120000000e000090032006172b9000f
:101c8000612bb9000800be000a01be0086030700f0
:101c90000fba970064427800f4ef9f007d012000a6
:101ca0006172b900612bb9000800be000a01be00d4
:101cb000760307000d0037006172b900612bb9008f
:101cc0000800be000a01be007b0307008d06e90084
:101cd00000f2b900040454008fba970065427c00fa
:101ce00085fd2f008f82420084f27e00009ebe00a0
:101cf0000296be003c04be002c05be00e00f54005e
:101d0000e08f5c00e00f5d00e08f5d0002003400ba
:101d10000d00e000e8ff3c00e80f570010003a001b
:101d20003c1090000038a3000d003200f78f5600e1
:101d300006003e0085fd2f008f824200e5c07e0038
:101d400000c3b30080cf5000050032008d06e900cb
:101d500002c3b30081fd2f008f80400082f07e001f
:101d600078811600420e98007c00900083fd2f00c1
:101d70008f8141008d80410032fb07004c089000ac
:101d80008c109000810f500006003d000080500034
:101d9000300e98003c1090000040a10030169800d2
:101da0000f0037000100e0000d003d00bc10900066
:101db000f4806000f08f500009003a002c11900070
:101dc000ac089000810051003c09900082805000d6
:101dd000008050004240a90001003400300e9800fd
:101de0004f0778004f06be004f05be004f04be00ef
:101df000cf01b10000000600889fbe0000047800fb
:101e0000e12182000100e0000200320001007800c0
:101e10000d003700f1218200e04324000400370068
:101e2000910f5400250036000180e80091009000d9
:101e30000100e000faff3a0010003700920f540052
:101e40001e0036000280e800100178000200e00069
:101e5000faff3a0011017800f1218200e0432400ea
:101e600004003700910f5400140036000180e80090
:101e700091009000828f5000faff3a00f9778000bd
:101e8000888f540001003100880478000900780030
:101e90008e0007000000e00004003a00888f540024
:101ea000050032008904d100f5ff370009187800d9
:101eb00090000700d2ff37000000eb004f04be0087
:101ec00000000600881f7800630440000800a1009d
:101ed0008000eb00800f540021003600e30f540017
:101ee00001003e004800200008007800c2ff070003
:101ef0008000eb000000e000190032009000780044
:101f00009101780064815100880f51000300310075
:101f10001101900002087800070037000881400096
:101f200002087800910190001301980010017800d8
:101f30001109140088087800100178000000eb00f7
:101f40000200e00004003200920190000300e00073
:101f5000010032000280e800e0218a008180e80070
:101f6000010078004f047800000006000005210001
:101f700092003700881f780068fb20001804e000fa
:101f800003003a00f9ff070020c0b300004c7800be
:101f90004f04780000000600889fbe00000478000f
:101fa000080078002afe0700800478000004200062
:101fb0001800600002003200280090004d00070069
:101fc0000000eb0020049800384090000004e0007e
:101fd000050035000000fb00020107000000e000e2
:101fe000010032008084eb00181090000000e00037
:101ff00008003200060107000000e0000100320086
:102000008084eb00181090003a0007000000eb00fd
:102010001014980000082000180060000f00320023
:1020200061b723000000eb00d10f140005003a0057
:102030000000400081b72300008040000008eb0052
:10204000030037000000e800e80f5000f6ff3a00f8
:1020500008007800270007000e003700000c780009
:1020600000c0eb00304498006002200008004000ef
:10207000200498004004980050049800400c9800f8
:1020800060049800500c980070049800760044009a
:10209000000c9800090078004f04be000000060004
:1020a000889fbe0088b82300f004540048007800e0
:1020b0000000e00001003200b7ff0700890f540064
:1020c000faff3a004f04be000000060080007800ce
:1020d0000000eb000100e000050034000100780082
:1020e000d4000700e10f400001003a000000eb00bf
:1020f000000006000000e0002f003200c001780060
:10210000e38f51002c0036000308a3002a003a0098
:10211000f12182000100e00002003200810f500036
:102120000400310011009800f0218a0016003700e9
:1021300082007800110190000200e00002003200ed
:10214000800f5100faff39001102780084824000ac
:10215000850f500018003900808f520003003a00ac
:102160008308420001007800070037000200e00009
:102170000300320083014000830f51000e0039003c
:102180001200980090009800900090000100e0007c
:102190000900320010014000828f500006003a0012
:1021a000c24324000009eb0010017800110841002f
:1021b000910090001100980000000600010020002e
:1021c0000100e00008003200010080000100e00092
:1021d000050032008100e900010088008180400094
:1021e0000200800000b17800000006003400f80012
:1021f0000203be00820270008502720002f0a60097
:1022000000f0a6008100e800a10188001500b200de
:1022100008003200105978000402e9000d00320075
:1022200061004000fbff39003420ec000000280072
:10223000f8ff3700101978000482e9000500320029
:1022400062004000fbff39003420ec000000280051
:10225000f8ff37003400f9000601be000000060058
:102260000300e00007003200a5018000a101880002
:1022700010427800a50188000402fb00820f520082
:10228000110032008301e900a5018000a10188004e
:1022900010427800a50188000404e0000800320024
:1022a000000278001000b00000026a004260af0037
:1022b00000f0a0000482d2000180b000e8ff3700e7
:1022c00000002000010020000000060000c0da002d
:1022d000000006000a00fa00e20f500034003e0041
:1022e000c07d8000e10f500003003200e20f50007b
:1022f00011003a000c003700032220000300e00028
:1023000001003a000040da002002e200020035003d
:102310002822ef0021e2a8002342ab000d003a0082
:102320002342a8000b003700032320000300e00035
:1023300001003a000040da003002e20002003500fd
:102340003822ef0031e2a8003342ab0001003a002e
:102350003342a800820178000b0037003102fb00f5
:10236000e10f500004003a002322ab00feff3a00c8
:1023700024118800030037003322ab00feff3a002f
:10238000a41188008301e9000300e000f3ff3a0094
:10239000e10f500003003a002302ab00feff3200c1
:1023a0000b0037003302ab00feff3200080037009d
:1023b00033002000b3bf9f00c0bf9f00d1bf9f006c
:1023c000e2bf9f006a805700c0ff07006fb9970007
:1023d000020078000080fa000000060000c0da0069
:1023e000000006000a00fa0011002000b1bf9f00a3
:1023f000c0bf9f006a805700f8ff07004fb89700e2
:102400000080fa000000060000c0da0000000600ac
:102410000a00fa0051002000b1bf9f00c0bf9f001a
:102420006a805700f8ff07005fb897000080fa0045
:1024300000000600889fbe0080047800d07d8000e8
:102440000000e00004003a000e0007000084eb00ea
:102450000000e00008003500d87d80000900e000a1
:102460000500320009004400060007000000e000fb
:1024700001003d000084eb00080078004f04be001e
:1024800000000600800078000100e00003003a0030
:1024900000002000d07d8800000005000080eb00d7
:1024a00002002000828f500002003e00d17d880093
:1024b0000000eb0000000600839f68000100e000c0
:1024c00002003d0060001000e08018000300e00002
:1024d00002003d0060011100e0811900a20c07001c
:1024e0004f00e00002003b0060001000e080180098
:1024f000000006004f89de008201780037003700b7
:10250000f4ff2f00450037000001eb005e000700dc
:10251000040032000200200003f8230001f0a700ad
:10252000dd0d0700000006000001be007d00070071
:102530000470a70003f0a1006509b1001600320085
:102540000d0035006828e10006003500f0ff2f007f
:10255000f1ff27000300e00013003b00010028000a
:102560000000050000004000818048008502e9006d
:10257000fcff3a0008003700f88f420002003c00e0
:102580008000eb00000005008100d1000080d30036
:102590008502e800fcff3a000300e00002003b0077
:1025a00060001000e0801800000006000001eb0051
:1025b00035000700040032000200200003f8230069
:1025c00001f0a600bd0d0700000006000400200079
:1025d000120037001400200010003700881f780018
:1025e000030478000300e00007003d0060001000d5
:1025f000e080180060011900e081190002003b0032
:1026000001f02d00030037005b00070008f0a70071
:1026100001f0a0004f04780000000600889fbe0073
:102620008a9fbe00841f7800820007004f00780058
:1026300011003300f0ff2f00838f6c0006003b0079
:10264000040565000a00a7000800370009f0a6008d
:102650001000200008003700820f5400838f5c00b8
:10266000030039001000200001003e00000020009f
:1026700009f0a7000000ea004f05be004f04be00ad
:102680000000e00000000600889fbe008a9fbe0098
:102690000003be00230007008505780082815200f8
:1026a000020020006220e10004003a00f307b100bc
:1026b000040035007718e100040035000600be0074
:1026c000140037006000b8000f003700f50f20003d
:1026d000faff2f008502d1000a85d3008301e900ab
:1026e000fcff3b008184620000046500890f7400d8
:1026f000f2ff32008582ea000a85ea0081846200e6
:10270000000465005300070007f0a70001f0a000d7
:102710000081eb000200e0004f05be004f04be0048
:1027200000000600c70ade00f107b200f50fb20094
:1027300008003200e1cf4200020032000170a00028
:1027400024000500810f700001003200040805001c
:1027500044000500810f700002003a0014000500db
:102760008502e9000000400081c04800fcff3b00fa
:102770000170a00024000500889fbe008a9fbe0053
:102780000082700004027100048271002600320091
:102790000004be000200be006011b8006b092000fa
:1027a000950220000182cf000a0039000541b100e6
:1027b0000082cf00070039000541b1000982cf0037
:1027c000040039000541b1000882cf000100390042
:1027d0000541b10005425200120032000a003b00e0
:1027e00082817100610164008100d1000080d3000a
:1027f0008984d3000884d3008b05e8000442e800f4
:10280000f7ff3a00070037000804440089844c00b1
:1028100000004800818048008b05e9000442e9007f
:10282000f9ff3a000b0007004f05be004f04be0041
:10283000000006000004be00baff07000003be004f
:102840000405be000200be00b6ff0700844f7500fd
:102850000000060081002000618055000b003d0053
:102860000b00200061fe2f000100e1001d0034007c
:1028700082817100610164008904d1000884d30061
:102880000000e800faff3a007100200061006400d7
:10289000030070000200600009003200610444007f
:1028a000e0844c000988a500050032008b05e80093
:1028b0006808e10002003a008904d1000884d300ce
:1028c000f20f20000258e10005003d00c75ddd0069
:1028d000f907b20089807500080078000000060042
:1028e0000bf827008b00780000000500889fbe00d1
:1028f0008a9fbe0030044200b0844a0030054b007d
:1029000090854b006000b1000898be000a90be00a0
:10291000c100070002003100680040001008e80014
:102920004f05be004f04be0000000600889fbe0099
:102930008a9fbe003004be002005be00041854006b
:1029400005985c0006185d0007985d0011002000e6
:10295000b1000700010039008000eb001088100072
:102960004f05be004f04be00000006001200fa0032
:10297000889fbe008a9fbe008c9fbe00e0b79f006c
:10298000f1b79f0082bf9f0093bf9f000605be0066
:102990000404be000000eb00d0b79f00c0b79f004a
:1029a000b0b79f00a0b79f0090b79f0000067800c7
:1029b0005fb19700cfb09700820141003fb0970010
:1029c0000200e00004003d00980007007e805700f0
:1029d000c6ff070003003700940007007e80570001
:1029e000d2ff0700dfb697000d00e0000c003500b5
:1029f0006fb29700ffb297000fbb97009fbb970085
:102a000010002000010020006011b80000027200d8
:102a100081827200020373008383730058000700f1
:102a20000c06e80001042000810f5600e0ff3a0088
:102a30000d00e00004003d000802be000a03be00d5
:102a40007e805700a9ff07005fa897000000e00004
:102a500005003a001fb29700afb297003fb397004e
:102a6000cfb39700460007006fb09700ffb0970004
:102a70000fb997009fb997004f06be004f05be00e3
:102a80004f04be000080fa0000000600881f780096
:102a900018002000881f7800b4ff07008f87e90026
:102aa0004f04780000000600801feb00afff070016
:102ab0008f87e90000000600889fbe008a9fbe0045
:102ac0003d00070007003d004000070018002000ff
:102ad0004500070008003d002b0007000004eb0044
:102ae000050037000004eb003f00070002003d0036
:102af0002500070018002000e4ff07000800e000a0
:102b0000010032003d0007004f05be004f04be002b
:102b100000000600889fbe008a9fbe008c1f7800c0
:102b20002500070008003d00280007001c002000c9
:102b30000820e10009a8e1000ab0e1000bb8e100bb
:102b400007003d00050037000006eb0026000700e7
:102b500003003d006044b8006055b8000c00070059
:102b6000d1ff07000c00e000010032002300070045
:102b70004f0678004f05be004f04be00000006005f
:102b800008000700000006006044b8006055b80067
:102b90000402540085825c0006035d0087835d00ab
:102ba00000000600a4b79f00b5b79f00c6b79f00fe
:102bb000d7b79f0000000600e00f5000e08f5800dc
:102bc000e00f5900e08f5900000006006044b80093
:102bd0006055b8000000540081805c0002015d0077
:102be00083815d0000000600e00f5200e08f5a0074
:102bf000e00f5b00e08f5b00000006006022b80081
:102c00006033b8000000520081805a0002015b006e
:102c100083815b00000006000440e10005c8e1007c
:102c200006d0e10007d8e100000006004f09de00f1
:102c300082817100b3b79f004f01de0081804000a8
:102c400082807000a1b79f008fb097004f09de000f
:102c5000000040000200700090b79f007fa897001e
:102c60004f01de00818040008280700081b79f00ac
:102c70000d0007004f3ade00000040000400700025
:102c8000f0af9f00080007000402420085824a005e
:102c900006034b0087834b00c2ff07000802be00fb
:102ca0000a03be00000006002fb29700bfb29700d3
:102cb0004fb39700dfb39700000006008102d000f9
:102cc0008502e90001187800021878000518410013
:102cd00003187800041878000518420004087800ea
:102ce00000000600800090000101e900c000900093
:102cf0000000200002800900801878000000060013
:102d0000b10278000009eb000002e900070034007e
:102d1000b10178000328e10002003c008302780042
:102d2000040950000402e900f9ff3c0005007800a6
:102d300000000600b10278000009eb000002e90083
:102d400007003400b10178000328e10002003500db
:102d500083027800040950000402e900f9ff3c00f6
:102d60000500780000000600810178000000e900fd
:102d700000800900b2187800030078000000060007
:102d8000f0874700889fbe008a9fbe008c9fbe00d0
:102d90008e1f7800f0b79f00a1b79f000000e900e8
:102da000cf80de00d3fd07000001be00b0fd200093
:102db000910c2400d90a0700e0b79f00d1b79f000b
:102dc0007fb09700e00f500035003400efb297005d
:102dd0000102780005017800840178000500780080
:102de00084007800b50b0700c0b79f00b1b79f0003
:102df0002fb397000007eb006170b90086bf9f00fa
:102e0000bcfd07000004be00efb097005fb0970064
:102e100001017800800178000800be008c0c0700da
:102e2000720d07000006be00cfb097003fb09700bc
:102e300001017800800178000800be00840c0700c2
:102e40006a0d07000005be000200200003f02b0001
:102e50000c00be007e0c0700d2a3200073ed2300ff
:102e6000960b07000004be00a2702d0033da230089
:102e70000a00be00760c07000001be000800be007c
:102e80008e0b0700b50007000fbb9700001b7800f2
:102e90000e07e800ffb097008e8f5000d6ff3c0071
:102ea0002fb097004f0778004f06be004f05be00b9
:102eb0004f04be000f01b10000000600889fbe0055
:102ec0008a9fbe008c9fbe000005780081067800b6
:102ed0000a00e900cf80de0086fd07000001be0089
:102ee000b0fd2000910c24008c0a070080057800ba
:102ef00001067800e00f5500130034008d047800bf
:102f00000004eb006140b9007afd07000b01780076
:102f10008c0178004e0c0700340d070002002000e1
:102f200003f02b004a0c07000200200003f02300ee
:102f3000620b070089000700801c78000804e80085
:102f4000880f5500efff3c000d0078004f06be00d3
:102f50004f05be004f04be00000006004400f8000c
:102f6000040f200024028800811f78000000e9007f
:102f7000008008000300000032027800b3027800ed
:102f80001301c0003100cd004f0078004400f9006b
:102f900000000600889fbe008a9fbe008c9fbe0076
:102fa0008e1f78004400f800070f200027028800d9
:102fb0003400f800811f78000f07780007f02f0019
:102fc0000338e10004003200270280004700b3000c
:102fd00027028800a301880019002000804cdd0032
:102fe0001300200002047800800678008904d100d4
:102ff000424edd00010578000302e900048008006c
:10300000170000008a0546004218dd000902e900a9
:103010000480080010000000000000004620c300eb
:103020003b025200df35c100080440001381c2009a
:10303000ab825200264dc5003e85c400bb00cd00ca
:10304000bb80cd003a00ca002a80ca000700c90030
:103050000580c900ba00cd00ba80cd000a0546003f
:10306000020478008301d0008d06e900dfff3c00f8
:103070008e0778004f0078003400f9004400f90012
:103080004f0778004f06be004f05be004f04be003c
:10309000000006004600f8005000f8000220200062
:1030a0003202880002002800130020008019dd0091
:1030b000028171008202880001007800010178001d
:1030c00026002000470020008301e900038008005b
:1030d000070000000110e100040034001102be00ee
:1030e00092087800e2307b000489be0087804000af
:1030f000121978005000f9004600f900000006009f
:10310000821f7800849fbe008a1f78004400f80068
:10311000040f200024028800010578000601c30086
:103120000080e900008008000300000000000000ab
:103130000505f0000401f1003200cd000505f000a6
:103140001001f1003200cd004400f9004f05780075
:103150004f02be004f00780000000600ea874700db
:10316000889fbe008a9fbe008c9fbe008e1f780085
:103170000004be000200200003702400b40b07000e
:1031800080067800010678006011b8000800be00d3
:10319000dbfc0700e00f50003b0035000d0078001d
:1031a0008c007800d8fc0700dffc070000037800e3
:1031b00001077800060078008e00780086bf9f0027
:1031c000ccfc07000004be000200200003f0230036
:1031d0009f0b0700f0b79f00e1b79f00cafc0700f4
:1031e0000005be000801be000d0078008c037800c9
:1031f00000027800870278000400be00a60a0700db
:1032000080067800010678000200200003f0230009
:103210000d0278008c0278000400be00b8fc0700a4
:1032200000017800e00f51007f0034000200200010
:1032300003f823000800be00a00a0700bafc07003c
:103240000003780001077800860178000e017800fd
:103250000300780082007800f2ff2700820f500000
:10326000e08f580002003400f0ff2700010020002a
:103270004f0778004f06be004f05be004f04be004a
:10328000af00b100000006000d0078008c0078004f
:10329000c6fc0700a4fc0700f0b79f0001077800f8
:1032a0008e00780093fc07000004be000d0178003a
:1032b0008c0178000800be00c4fc07000001780003
:1032c000e00f51000a0032000200200003f8230042
:1032d0000800be00700a070093fc0700f0b79f00cb
:1032e000010778008e00780082fc07000004be0011
:1032f0000200200003f023000800be00540b07006a
:10330000e0b79f00d1b79f007ffc07000005be001b
:103310000801be000c03be00070278008602780098
:103320000400be005c0a07008006780001067800f1
:103330000200200003f023000d0278008c027800c8
:103340000400be006efc070000017800e00f510091
:10335000180034000200200003f823000800be001b
:10336000560a070070fc0700f0b79f0001077800bd
:10337000ffb197000e01780003007800820078000a
:1033800002002800f3ff2f00820f5000838f5800a7
:10339000b7ff3d000200be004f0778004f06be0099
:1033a0004f05be004f04be00af00b1000000060094
:1033b000b5ff37000200200003f023000c00be0020
:1033c00001027800800278000400be0081fc070042
:1033d00000067800e00f5600e5ff3a000a01be0043
:1033e000efb297005fb29700050078008400780084
:1033f000290a07000001be00300a07004afc070046
:103400008c0f5000daff32000200200003f8230086
:103410000800be00290a070043fc0700f0b79f0020
:1034200001077800d2ff37000200200003f02300dc
:103430000c00be0001027800800278000400be008b
:1034400064fc0700000678000fbb9700e00f5600f1
:103450007dff3a000a01be00ffb297006fb29700ed
:1034600005007800840078000b0a07000001be0008
:10347000120a07002cfc07000fbb97008c0f5000ae
:1034800071ff32000200200003f823000800be0094
:103490000a0a070024fc07000003780001077800ef
:1034a00069ff3700519099000000060071b89a003a
:1034b0000000060000017800f0052000808f500019
:1034c0000d003e000080eb000100e00002003c0027
:1034d00060919900000006000000eb000000e80089
:1034e000808f5000fdff3a0000fe2f000088b900d9
:1034f000609199000000060000000600800178003d
:103500000100e00004003a0012002000b29199008e
:1035100082999900000006008200e9003006200030
:10352000808f5000fbff3e00b29199008299990074
:10353000f8ff3700129899002398990000000600c0
:10354000ef8f500001003e007190990000000600ce
:103550000001780040062000808f500008003200f3
:10356000c0122000808f50000a00320060662000e8
:103570004009990090992700500999000000060021
:10358000c0cc200040099900303327005009990031
:10359000000006003033200040099900c0cc27000d
:1035a0005009990000000600889fbe008a9fbe0057
:1035b00080047800820578000000eb0000057800a8
:1035c000023020000ab07c000080e800820f50002a
:1035d000fcff3a0018002000880c7800f0ff27005c
:1035e000b0349800c034980009007800adff07009f
:1035f0008b00780009007800acff0700f100200084
:1036000009007800abff0700620020008800780006
:1036100009007800b9ff070072912100d301200052
:1036200009007800c3ff0700811b2000898040004b
:103630000a007800020a20008098eb000000e800f1
:10364000820f5000fcff3a000000eb00b09c990094
:103650002100200009007800b9ff0700810c20003c
:1036600009007800baff07004f05be004f04be00f6
:1036700000000600a000fa00889fbe008a1f7800a4
:103680008004780001047800020578000200e00060
:103690001600320079b9920088007800090078009d
:1036a000e61b0200000000000a00e00004003200f7
:1036b0004f0578004f04be000080fa0000000600ad
:1036c0000205200088007800a0f52f000f004000c0
:1036d000241c0200000000004f0578004f04be00cb
:1036e0000080fa0000000600f5ff37000205200008
:1036f000a1f52f008f80400008007800241c0200f4
:103700000000000079b99200880078000900780074
:10371000e61b0200000000000a00e000e4ff3a009f
:10372000e7ff3700609091000000e9008000eb00a7
:10373000e10f4000040032008100e8000002b00008
:10374000e10f4000fcff3a00010078000000060095
:1037500000989100000006007090910000000600a3
:103760004009910041062000c0cc2000800f51008c
:1037700005003200c112200030332000800f5100bc
:1037800001003200810c20000100780000000600da
:103790000001780020989100cf80de00c000dd009d
:1037a0000000200012999100030020000200700028
:1037b0008380700000000600409091000000060029
:1037c000020520005c1c0400000000001000fa004c
:1037d000000f780011079800220798001e0078005b
:1037e00070079800ea00470066004700d100070014
:1037f000ec00470068004700d30007007e009000ff
:10380000e019b00006052000800278001e0290003a
:10381000ce0190006e019000be0090005e0090000e
:10382000ce0007002e0190009e0090001e00780040
:1038300014010700010520001e0090008c00070005
:103840000080fa00000006000201e9000280090081
:10385000b0187800000006004400f800010f2000b6
:1038600021028800c1112000008040001281c300a5
:103870000f000800040000001201c30030027800ad
:103880003000ca00140188000080cb006001800075
:10389000010020000080500003003400f0ff2f00e2
:1038a000f1ff2f000200370051018000400180002d
:1038b0004400f900000006003400f8004400f8005d
:1038c000881f7800891f78004400a9004420a800c0
:1038d0004440a80000000000000000000004780040
:1038e0001200b100820478001201c30009800800b0
:1038f00001000000380278001001f0000104780097
:1039000002002000210180000100e00005003a00d3
:1039100000ff2f00110180000101df000201fb0008
:10392000020037000100df000000fb0082004000c1
:10393000798140006f10e10002003c000200c800e5
:1039400005003700f30020000300c80014ff2f001b
:10395000840141000300c80012018000f30120002f
:103960000282610002002000a2018800c3aa2d008b
:103970004122dd000000000063007a008100ea00bf
:103980001281c300410188007680c8004101800097
:1039900001025000450526001301c0004100c80087
:1039a0001281c3000980080001000000380278007d
:1039b0001081f00002002000510180000100e000b1
:1039c00005003a0000ff2f00410180000101df00e7
:1039d0000201fb00020037000100df000000fb00d5
:1039e00082004000798140006f10e10002003c003d
:1039f0000280c80005003700f30020000380c800e3
:103a000014ff2f00840141000380c80042018000a0
:103a1000f30120000282610002002000a201880060
:103a2000c3aa2d004122dd000000000063007a00df
:103a30008100ea001281c300410188007680c8003d
:103a40004101800001025000450526001381c0009d
:103a50004180c8000030cb008003cd00cf04780047
:103a60004f0478004400f9003400f900000006001b
:103a7000889fbe008a9fbe008c9fbe003400f80065
:103a80004400f800670e2000270288000004780038
:103a90008100e90001800800010000001800ca0050
:103aa000b807cc004400f9003400f9004f06be000e
:103ab0004f05be004f04be000000060002002000bb
:103ac00003402d00020878008308780000000600fb
:103ad0000200200003482d000208780083087800c7
:103ae000000006000200200003502d0002087800ac
:103af000830878000000060002002000c37d2d002e
:103b00000208780083087800000006000200200008
:103b1000c38a2d00020878008308780000000600a0
:103b200002002000c38e2d00020878008308780070
:103b3000000006000200200003b02d0002087800fb
:103b400083087800000006000200200063b02d000a
:103b5000020878008308780000000600889fbe00f5
:103b60008a9fbe008c9fbe003400f8004400f8001d
:103b7000670e20002702880000047800a101880059
:103b800082047800a3018800040578008405780089
:103b900005067800060078001000b1002900b0008a
:103ba000008008003000000004002100ba03ca00b1
:103bb0001501800026018000c12ade001301c0002b
:103bc0004f00c800d203c100ac0290003c0390003b
:103bd000c12ade001381c0004f80c8005282c1009c
:103be0000030cb008c0390001c0390002706980047
:103bf000c13bde001381c2004f80c8001281c100aa
:103c00000030cb003c0390001c029000340698006a
:103c1000280290001381c0004f80c8001281c100ab
:103c20001c0390007d00c80014018000041e780071
:103c30002c00cc00180290001301c2004f00c800f5
:103c40001200c1000000cb008c0390001c03900008
:103c5000c13bde001381c2004f80c8001281c10049
:103c60000000cb007600c8003b00cd004400f90006
:103c70003400f9004f06be004f05be004f04be00e1
:103c8000000006002e00fa000007980011079800b7
:103c90002207980000002000300798000e009000d6
:103ca000601798006e10900050909100200f9800bf
:103cb000ae089000410798002e0890000004b00064
:103cc000200f98002e099000620798002e0890009f
:103cd0000002b000200f9800ae019000530798003a
:103ce000610220008e804000400220000e00400053
:103cf00081ff07002e139000be1290005e0290001c
:103d0000ee11900022002000010520001e0090000e
:103d1000e0000700600f9800110020005e00900096
:103d2000af0007006e10900014002000900f1200ea
:103d300005003a00f0ff2700000f98000000200067
:103d4000100f98000400370060662400000f9800f0
:103d500090992300100f9800610220008e8040008f
:103d6000400220000e00400068ff0700a102200072
:103d70008e804000800220000e00400068ff070097
:103d80006e109000c111200080804000ce12900083
:103d9000851f7800de1390002e139000be12900055
:103da0006e0a90009e0990000e0990005e0090003f
:103db000300107008f87e9006e1090001000e000ce
:103dc0003000340000002000300f98003e089000c2
:103dd000ef0f50002b003c006e119000be089000c9
:103de000400020000008b80000004100c21120007f
:103df00000014100f0ff200001002000b20f100080
:103e0000a28f18000c003c006e119000be089000bc
:103e1000400020000008b80000004100c21520004a
:103e200000014100f0ff20000000e8000100200038
:103e30000089be000f0037006e119000be08900090
:103e4000400020000008b80000004100c315200019
:103e5000808141006e119000be089000400020005b
:103e60000008b80000004100c011b0001002be0000
:103e70008489be003e0890000000e800300f9800e2
:103e8000d2ff37006e109000c115200080804000e6
:103e90006e109000c011b0006e019000d6010700b6
:103ea0006e10900060919100ce0090006e00900026
:103eb000dd020700610220008e80400040022000e9
:103ec0000e00400011ff07006e10900061062000f8
:103ed00080804000ae1190003e1190004e00900096
:103ee000050307006e119000ee1090006e10900018
:103ef00050309000c0309800303198006e10900023
:103f000044030700400f98000000e0000900320061
:103f10006e10900040099100d00991006e10900041
:103f2000c1112000808040006e109000c015b000cc
:103f30009e0307006e109000610620008080400004
:103f4000020820005e0090001e04070042002000ce
:103f5000010820005e00900034040700500f980014
:103f60008080eb005e0090001d000700ee089000ce
:103f70005e08900000814000010820005e00900073
:103f800061040700ee1090006e1090006600400083
:103f90000505200004082000a10190001e019000ea
:103fa000800078005e00900082040700ee10900010
:103fb0001e019000000520004100dd00620050005d
:103fc0000200400010007800a0009800ee10900061
:103fd00000002000800878000080fa000000060041
:103fe0000a00fa00000f7800110798000000000096
:103ff0001e009000e10f500014003a00e40047005a
:1040000066004700adfe0700be0190002e01900043
:104010009e00780060002000990407009e00780050
:1040200060002000d2040700e4004700660047005b
:10403000acfe0700be0190002e0190000108200098
:104040001e007800e504070010003700e400470078
:1040500066004700a3fe0700be0190002e019000fd
:10406000010820001e00780027050700e400470033
:104070006600470096fe0700be0190002e019000ea
:104080009e00780060002000700507000080fa00a4
:1040900000000600889fbe008a9fbe008c9fbe0065
:1040a0003400f8004400f800670e20002702880062
:1040b0000004780000067800830478000405780086
:1040c00085057800a6018800000378002100b10072
:1040d00038007800800178000000e00001003d0019
:1040e0008001ea00010278001400b000018008009d
:1040f00007000000380078000000e00001003d00eb
:104100000000ea000300e1000100340080017800b3
:10411000000000000300df000000fb000300e000df
:1041200001003a00000020000000ea0002005000f8
:1041300080017800000178001200b0001281c300f5
:104140000000ea0015002000550188000280c80028
:1041500004800800030000001c00ca000000cb001f
:104160000000c8003c00cc0003007800e988910002
:104170000904780001015000880eb000e08c99001d
:104180000a0678001281c3000200ea001200b000a3
:1041900015002000550188000280c80017000800a3
:1041a000030000003800ca000000cb000000c80077
:1041b0003c00cc00090478002800b0001800ca00b8
:1041c0000000cb000000c8001800cc00a499290012
:1041d000980278001301c000060478001880ca0015
:1041e0000000cb003c00cc00b80278004e00080074
:1041f000020000001800ca005210c0003c00cc00b1
:104200000604780078889000900498001201c3009a
:10421000170009003c00cc000a0678000c0ab00028
:1042200009047800880eb0001700080001000000a3
:104230003c00ca003800cc008a0478000b047800e7
:104240004604c300670008000200000000000000f0
:104250004704c0003900cd00030078004400f90095
:104260003400f9004f06be004f05be004f04be00eb
:1042700000000600889fbe008a9fbe008c9fbe0083
:104280003400f8004400f8004200f8006a0e2000f4
:104290002a0288000005780081057800050478006e
:1042a000a6018800870478008f0678004db6970035
:1042b000ac01880002037800830378008401780051
:1042c000c119dd007300b1000a0678000f00080074
:1042d000c100000018007800980090008080500015
:1042e0004200dd000a0540003a0278001201c300d6
:1042f00001800800010000000401f0000401f0004a
:10430000190078006100e10003003a0019009000f4
:104310000000c80031003700210180002401800026
:10432000150180000100e00004003a001101800046
:1043300020fe2f001100b1000b003200210180008f
:104340000100df000000fb0012ff2f000200e1006f
:104350004100c80004003a00110180000101df00a3
:104360000201fb00000041002401880015018800c3
:10437000800078000008a300050032004180de00c4
:104380000000c8001000b0000000c80003003700a3
:104390004180de000000c8000000c8002401800049
:1043a000990290001301c000010078000008a300ea
:1043b000060032000000ea004180de000000c80074
:1043c0001000b0000000c800040037000000ea0040
:1043d0004180de000000c8000000c800210180000c
:1043e00024018000150180000100e00004003a0073
:1043f0001101800020fe2f001100b1000b003200df
:10440000210180000100df000000fb0012ff2f00ef
:104410004100c8000200e10004003a0011018000e0
:104420000101df000201fb000000410024018800bf
:1044300015018800800078000008a3000500320004
:104440004180de000000c8001000b0000000c8007d
:10445000030037004180de000000c8000000c800f3
:104460002401800015018000c12ade001381c400f0
:104470004f80c8001281c100010078000008a3002d
:10448000060032000000ea004180de000080c80023
:104490001000b0000080c800040037000000ea00ef
:1044a0004180de000080c8000080c8006f18e10075
:1044b000020034004f80c800ef8151000380c80023
:1044c0001b00be002101880010018800210180002e
:1044d0000100e00004003a001101800020fe2f00de
:1044e0001100b1000b003200210180000100df004b
:1044f0000000fb0012ff2f004100c8000200e10095
:1045000004003a00110180000101df000201fb00fc
:1045100000004100bb0078002b00ca001101880098
:10452000800078000008a300050032004180de0012
:104530000000c8001000b0000000c80003003700f1
:104540004180de000000c8000000c8002401800097
:1045500015018000c12ade001301c5004f00c8000c
:104560001201c200010078000008a300060032001a
:104570000000ea004180de000000c8001000b0002a
:104580000000c800040037000000ea004180de009f
:104590000000c8000000c8000000cb00110180002e
:1045a000811d78002b00cc000401200005002000b4
:1045b0001281c300440188000030cb00210180003b
:1045c0000100e00001003d00848dbe004b00b00002
:1045d0004800b0000c0578004900b0004200f90026
:1045e0004400f9003400f9004f06be004f05be003c
:1045f0004f04be0000000600889fbe008a9fbe00d8
:104600008c9fbe003400f8004400f8004200f8001f
:104610001000fa008f0678002d00b100670e200010
:1046200027028800000478008104780002057800e1
:10463000f0ff2f00f1ff27008096be000f0008005a
:10464000f0000000b90078003900ca0011018800ac
:10465000220180000200e00003003a0020fe2f004b
:104660001100b1000d003200210180002401800002
:10467000150180000100df000000fb0012ff2f0089
:104680000200e1004100c80004003a00110180006e
:104690000101df000201fb0000004100240188004d
:1046a000150188008000ea000008a3000500320020
:1046b0004180de000000c8001000b0000000c8000b
:1046c000030037004180de000000c8000000c80081
:1046d000380178003880ca0042018800500180000b
:1046e0000000e00003003a0020fe2f001200b1009d
:1046f0000d0032005201800054018000450180000d
:104700000200df000000fb0012ff2f000200e100aa
:104710004180c80004003a00430180000301df002b
:104720000201fb000000410054018800450188009f
:104730000001ea001000b0000008a30005003200ec
:104740004180de000080c8001000b0000080c8007a
:10475000030037004180de000080c8000080c800f0
:104760004401800055018000849ebe00010678004f
:10477000f0ff230023018000110009000300d9008d
:10478000000278001501800026018000c12ade00a9
:104790001301c0004f00c8001201c1003d037800a2
:1047a0001d80ca004601880000b0cb004501800092
:1047b00056018000c12ade001381c0004f80c8006e
:1047c0001281c1006d00b1003d0378002d00ca00c8
:1047d000160188002d00b100140180004122de0086
:1047e00045018000c12ade002601800057018000bb
:1047f0001301c0004f00c8004100c8001381c4006d
:104800004180c8000000cb001381c2004180c80075
:104810000000cb004e00c8001201c6007e00c80098
:10482000a40120008c007800040241000100520025
:10483000f40120000400e1000a003500210180009d
:10484000f10f200031018800f1ff2f0021018800c5
:10485000110188000100e0000c0034001201c300c7
:104860000a0037000008a300050032004180de0086
:104870000000c8004100c8000000c8000300370065
:104880004180de000000c8000000c8002401800054
:10489000150180000501720004003a001201c300f6
:1048a000040020001500200015018800110180007f
:1048b000200180000000e00003003a0020fe2f00ed
:1048c0001100b1000b003200210180000100df0067
:1048d0000000fb0012ff2f000200e1004100c800b1
:1048e00004003a00110180000101df000201fb0019
:1048f0000000410024018800150188008000780034
:104900000008a300050032004180de000000c8005e
:104910001000b0000000c800030037004180de0036
:104920000000c8000000c800810378001700b10033
:10493000240180001281c300020028004201880087
:104940001081f00056018000654d2d001301c40058
:1049500055fc27001201c00005b32a00850e78001f
:104960001d80ca000000cb004300c8001101800078
:10497000200180001201c300f43f20000400600009
:104980002001880011018800870e78003d80ca0050
:104990007680c8000000cb008468220025018000da
:1049a000160180004133de001301c1004f00c80032
:1049b0001201c0001281c3002008220081092e00cc
:1049c00050018800410188000000cb0024018000d4
:1049d000e58122001301c000200180000000e000fa
:1049e00001003d001201c3001281c30060002000dd
:1049f000500188000000cb0024018000b5aa2000ef
:104a00001301c0003a00cc000080fa004200f90017
:104a10004400f9003400f9004f06be004f05be0007
:104a20004f04be0000000600889fbe008a9fbe00a3
:104a30008c9fbe003400f8004400f800670e200090
:104a4000270288000004780081047800f4ff270022
:104a50001281c3008200780051018800fcff2f0002
:104a60006c018800f7a12300030028001201c30095
:104a700013018800620020000f00080017000000ea
:104a80009802110001003c00020c7800980211000d
:104a90001201c000260180001301c6007b00c8007f
:104aa0000000cb0000000000250180000500e000b0
:104ab000020034001201c300000000001501800054
:104ac000851c78003900cc00510188006c018800f9
:104ad0002422b1001201c300130188002800b00095
:104ae0004400f9003400f9004f06be004f05be0037
:104af0004f04be0000000600889fbe008a9fbe00d3
:104b00008c9fbe003400f8004400f8004200f8001a
:104b1000670e20002702880000047800d7cc200010
:104b200026332700676620004100b000a3018800fb
:104b30000f0008002f0000003802be004122de00f6
:104b40001381c2004f80c8001281c5007b80c8005d
:104b500054018000450180008501720002003a0086
:104b6000f4ff2f00f5ff2f00d6a42600c12ade0097
:104b70001381c4004f80c8001281c1007e80c8002c
:104b800006022000540180001301c10029018000a9
:104b9000f6ff2f0006851400260188004100c8009a
:104ba000140180001101f0000500cd00f65e210027
:104bb0001301c400f65625001201c100d4fb2700e2
:104bc0001281c300540188000000cb000a00e000fd
:104bd000010034000a00c80024018000920278001d
:104be0001203900005035300068009008418780022
:104bf0004200b000000000004200f9004400f9004b
:104c00003400f9004f06be004f05be004f04be0041
:104c100000000600889fbe008a9fbe008c1f78009f
:104c200080047800681b2000000444001880e8001d
:104c3000000c78000c0a20008c0f5000010034009a
:104c4000000ceb00090078002c1c020000000000a2
:104c50000005be00c10d200018804000000040008b
:104c60000bb07c00008044001a009800831b2000d9
:104c7000898141000083eb008083eb000002eb00a0
:104c80008c02780013007800cf80de00c000dd00c9
:104c9000000020006108b800c000dd000000200016
:104ca0001301900002004000e0804800800f530094
:104cb000818f5b00010036000003be000482e80023
:104cc000e4814100850f5200eeff3a007990910097
:104cd0000000e900030033000603430087834b0014
:104ce000fbff3700860f5500878f5d0024003600dc
:104cf000601a20000900400089989100010878009e
:104d00001000e0002600340010002000c09499003c
:104d100029989100cf80de00c000dd000000200057
:104d20006109b800c011dd0002002000199891004f
:104d300000004100e0804900800f5500818f5d0038
:104d4000090036004990910011002000810f5000a9
:104d500005003200010078004f0678004f05be00c4
:104d60004f04be0000000600000020004f0678003f
:104d70004f05be004f04be0000000600faff3700da
:104d8000601a200009004000900078000100e00057
:104d9000030034000108e9004240a900daff3c00aa
:104da0000000eb00c0949900d9ff3700889fbe0037
:104db0008a9fbe008c9fbe003400f8004400f800bb
:104dc0004200f800670e20002702880000047800e7
:104dd0008104780082037800030378000f00080044
:104de00070000000380278002800ca002501800009
:104df000140188001101800020fe2f001100b10075
:104e00000d00320021018000240180001501800086
:104e10000100df000000fb0012ff2f000200e10094
:104e20004100c80004003a00110180000101df00c8
:104e30000201fb00000041002401880015018800e8
:104e4000800078000008a300050032004180de00e9
:104e50000000c8001000b0000000c80003003700c8
:104e60004180de000000c8000000c800240180006e
:104e70001301c100010078000008a3000600320001
:104e80000000ea004180de000000c8001000b00011
:104e90000000c800040037000000ea004180de0086
:104ea0000000c8000000c800390278003980ca003c
:104eb00055018000440188004101800020fe2f0040
:104ec0001100b1000d00320051018000540180003a
:104ed000450180000100df000000fb0012ff2f00f1
:104ee0000200e1004180c80004003a004101800056
:104ef0000101df000201fb000000410054018800b5
:104f000045018800800078000008a30005003200f9
:104f10004180de000080c8001000b0000080c800a2
:104f2000030037004180de000080c8000080c80018
:104f3000540180001381c200010078000008a30022
:104f4000060032000000ea004180de000080c80058
:104f50001000b0000080c800040037000000ea0024
:104f60004180de000080c8000080c8000000cb0047
:104f700011018000011c78002800cc0004012000f1
:104f8000050020001281c300440188000030cb00de
:104f9000210180000100e00001003d00048cbe0002
:104fa0001281c3004800b0004200f9004400f9003b
:104fb0003400f9004f06be004f05be004f04be008e
:104fc00000000600889fbe008a9fbe008c9fbe0026
:104fd0003400f8004400f800670e20002702880023
:104fe00000047800810478004111de001200b10055
:104ff000b90278000280080005000000180278005d
:105000001301c0003800cc00180278005312c00011
:105010003800cc004400f9003400f9004f06be000f
:105020004f05be004f04be0000000600889fbe0072
:105030008a9fbe008c9fbe003400f8004400f80038
:10504000670e200027028800000478000006780020
:105050002100b10038007800800178000000e000f5
:1050600001003d008001ea00010278001400b00058
:105070000180080007000000380078000000e00010
:1050800001003d000000ea000300e10001003400df
:1050900080017800000000000300df000000fb003a
:1050a0000300e00001003a00000020000000ea00d8
:1050b0000200500080017800000178001200b0006a
:1050c0001281c3000000ea0015002000550188008d
:1050d0000280c80004800800030000001c00ca0011
:1050e0000000cb000000c8003c00cc0003007800aa
:1050f0004400f9003400f9004f06be004f05be0021
:105100004f04be0000000600889fbe008a9fbe00bc
:105110008c9fbe003400f8004400f800670e2000a9
:1051200027028800000478001100b1000200780016
:105130000201ea001200b000090020001aff2f004f
:105140000a10e10002003c0019ff2f000901510084
:105150001281c30015002000550188000980c80095
:105160000280c800090020006f00e1000200350045
:10517000f9002000090050000000000000000000bd
:1051800001800800040000001800ca000000cb00e5
:105190000900c8000000c8003800cc004400f90035
:1051a0003400f9004f06be004f05be004f04be009c
:1051b00000000600889fbe008a9fbe008c9fbe0034
:1051c0003400f8004400f800670e20002702880031
:1051d00000057800010478008304780084037800d7
:1051e00085017800038353000603e9000680080068
:1051f000020000001a00ca003800c9003a00cc00c2
:1052000080057800411add008b054200010478001a
:1052100006800800010000003b00ca003800cc00f6
:10522000646626000005780082057800890278000f
:105230001301c0003a00c9003b00cc0025018000ea
:105240001281c30001002800410188004e000800bf
:10525000040000001301c0000000cb003a00c900a8
:105260001b00cc00bb0278004400f9003400f900b8
:105270004f06be004f05be004f04be0000000600f2
:10528000889fbe008a9fbe008c9fbe004400f8002d
:10529000070f2000270288003400f80007f02f00d5
:1052a0000338e10004003200270280004700b30009
:1052b00027028800a3018800811f780019002000c0
:1052c000804cdd0013002000020478008006780086
:1052d0008904d100424edd00010578000302e90097
:1052e00004800800170000008a0546004218dd000f
:1052f0000902e90004800800100000004620c300f5
:105300003b025200df35c100080440001381c20097
:10531000ab825200264dc5003e85c400bb00cd00c7
:10532000bb80cd003a00ca002a80ca000700c9002d
:105330000580c900ba00cd00ba80cd000000000091
:105340000a054600020478008301d0008d06e900ba
:10535000dfff3c004f0078003400f9004400f90002
:105360004f06be004f05be004f04be000000060001
:105370004600f8005000f8000220200032028800a9
:1053800002002800130020008019dd000281710056
:1053900082028800010078000101780026002000c8
:1053a000470020008301e900038008000700000097
:1053b0000110e100040034001102be0092087800e0
:1053c000e2307b000489be0087804000121978001b
:1053d0005000f9004600f90000000600889fbe005a
:1053e0008a9fbe008c9fbe003400f8004400f80085
:1053f0000800fa00670e20002702880000057800e8
:105400008005780002047800a301880081017800fb
:10541000c219de001300b1004d0020000106780023
:105420002c00b1004166dd001a0078009a0090005f
:10543000011d400001155000880478000a854600cf
:105440008b0546000884460089044600ecff2f00c7
:105450008f0678002d00b1000380080022000000b4
:105460003b0078001a025000ba004000810e78001c
:105470002b0078001a0340002a00100080367e00be
:10548000b8037800d311c6005250c0001d80ca0076
:105490000000cb00ba00cd00d331c0005232c600ac
:1054a0006de0ca000000cb00aa00cd00d313c600f7
:1054b0005212c0001d80ca000000cb00bb00cd000e
:1054c000d333c0000010cb001201c6006de0ca004b
:1054d0000090cb000000cb00ab00cd004a00b00034
:1054e0004b00b1004800b0004900b1000080fa0054
:1054f0004400f9003400f9004f06be004f05be001d
:105500004f04be0000000600889fbe008a9fbe00b8
:105510008c9fbe003400f8004400f8000800fa0038
:10552000670e2000270288000005780080057800bb
:1055300002047800a301880081017800c219de000e
:105540001300b1004d002000010678002c00b100ce
:105550004166dd001a0078009a00900001014000c9
:105560004191de00021d7800010150004191de00f2
:1055700002157800880478000a8546008b054600ed
:105580000884460089044600ecff2f008f0678004f
:105590002d00b10003800800240000003b007800cb
:1055a0001a0250000402ea00ba0040008106980086
:1055b0002b0078001a0340000603ea002a001000be
:1055c00080367e00b8037800d311c6005210c000a8
